S00D00004F4C4544312E73726563C2
S214400000E82C40209D114000991140009911400075
S21440001099114000991140009911400000000000DD
S21440002000000000000000000000000099114000A1
S21440003099114000000000009911400099114000BD
S21440004099114000991140009911400099114000C3
S21440005099114000991140009911400099114000B3
S2144000609911400000000000FD0C4000110D4000BA
S214400070250D40009911400099114000991140000B
S214400080390D40004D0D4000991140009911400037
S2144000909911400099114000991140009911400073
S2144000A09911400099114000991140009911400063
S2144000B09911400099114000991140009911400053
S2144000C09911400099114000991140009911400043
S2144000D00000000099114000000000009911400007
S2144000E09911400099114000991140009911400023
S2144000F09911400099114000991140009911400013
S2144001009911400099114000991140009911400002
S21440011099114000000000000000000000000000B0
S21440012099114000991140009911400099114000E2
S21440013099114000000000009911400099114000BC
S21440014010B5054C237833B9044B13B10448AFF3CC
S21440015000800123237010BDD80940200000000015
S2144001605C6F40000C4B43B10C480D4910B5AFF3E3
S21440017000800C48036823B910BD0A48036833B9A9
S2144001807047094B002BF7D0BDE810401847064B88
S214400190002BF5D0184700BF000000005C6F400001
S2144001A0DC0940205C6F40000000000008B5074BAB
S2144001B0984203D0064B984204D008BD1520054B04
S2144001C0984708BD2A20034B9847F6E70080004032
S2144001D000800540810E4000436823F4702343604E
S2144001E04368090401F4702119434160704730B4F4
S2144001F043F69924056915F0020F03D1013CF9D165
S21440020001200CE0446814F0020F06D0120402F4F9
S214400210702211430BB141F08071C160002030BCA8
S214400220704732B900EB8100036B23F00103036390
S214400230704700EB8100036B43F001030363704794
S21440024032B900EB8100036B23F00203036370476F
S21440025000EB8100036B43F0020303637047042AFC
S21440026003D06AB1082A16D0704700EB8100036BB2
S21440027023F008030363036B43F0040303637047F0
S21440028000EB8100036B23F008030363036B23F04A
S21440029004030363704700EB8100036B43F00803DD
S2144002A00363E1E700EB81010B6B23F0F0030B6384
S2144002B00B6B1A430A637047431E1944B1FBF0F0B8
S2144002C0431EFE2B94BF00B24FF0FF3070477AB10A
S2144002D010B4144600EB81010B6B23F47F430B6391
S2144002E00A6B42EA04220A6300205DF8044B70471A
S2144002F04FF0FF3070470000014B1860704700BF5A
S214400300F4094020024B1B6803EBC0104254704770
S214400310F4094020024B1B6803EBC010405C70475A
S214400320F40940202DE9F0478418802C02DDC0F106
S2144003308004E2B222B3CD08A1EBC501012606FA3D
S21440034001F1CEB2012B1DD0002B35D0022B17D198
S2144003500138C7B2D419E4B2DFF890A04FF00009D4
S214400360DFF88C8021462846D04786EA00024B4676
S214400370D2B221462846C047013CE4B2BC42F1D145
S214400380BDE8F0870138C7B2D419E4B2DFF85CA004
S2144003904FF00009DFF8588021462846D04746EA05
S2144003A000024B46D2B221462846C047013CE4B242
S2144003B0BC42F1D1BDE8F0870138C7B2D419E4B2E7
S2144003C0DFF82880CE43DFF8289021462846C047ED
S2144003D006EA00020023D2B221462846C847013C1E
S2144003E0E4B2BC42F1D1BDE8F08700BF250640002C
S2144003F0210540002DE9F8439DF820708BB11C463E
S214400400904606464D1EEDB22C44E4B2DFF81890F6
S2144004103B46424621463046C847013CE4B2AC42E1
S214400420F6D1BDE8F88300BF250340002DE9F04F24
S21440043083B00446884691469B465B7A9BF80820E4
S2144004400021009149464046214DA8479BF8003080
S21440045013B103B0BDE8F08F9BF80820D30812F024
S214400460070F18BF01339BF809A09BF80A70E71BDB
S21440047017FB0AF717FB03F7DBF8043013FA87F786
S2144004801FE06400E4B20135EBB29E4210D9EBB2F5
S21440049008EB0300C0B213F0070F08BF17F8014B74
S2144004A014F0800FEDD0012249460A4B9847E8E702
S2144004B009F101095FFA89F90AF1FF3A1AF0FF0AD1
S2144004C0C7D09BF80860002EF2D000252C46DEE709
S2144004D0F5034000C10540002DE9F8430446904628
S2144004E01D4689460D4F0E4608E06A7A0132424460
S2144004F05FFA82F8B14614F8013F6BB120780A28BB
S214400500F3D00D28F7D02B4642464946B8472B7ABB
S21440051099445FFA89F9EEE7BDE8F8832D04400078
S21440052070B504460D4616461BB90D4B9847B0426B
S21440053015D03246294620460A4B984704F00F000D
S21440054040F0B000084CA047C5F3021040F0100041
S214400550A04705F00F00A0473046044B984770BDB3
S2144005601503400005034000310640005108400096
S2144005702DE9F0410D480E4B98470E4B98474020CA
S2144005800D4B984700254FF001082F460B4E002490
S21440059043463A46E1B22846B0470134802CF7D16C
S2144005A00135EDB2042DF2D1BDE8F081F8094020C6
S2144005B0F902400071064000310640002105400027
S2144005C0C3092AD11F2928D82DE9F04114460546EB
S2144005D0CE08A1EBC601012202FA01F75FFA87F8BE
S2144005E0014630460D4B98470246012C09D064B16F
S2144005F0022C0ED0002329463046094CA047BDE8C1
S214400600F08148EA0002D2B2F4E720EA0702D2B20A
S214400610F0E788EA0002D2B2ECE7704715034000E4
S2144006202105400008B5014B984708BD150340001A
S21440063038B505460822094B5A63094C0121204625
S214400640084B984701231A4629462046064CA047A1
S2144006504FF4FD70054B984738BD00BF00100E4064
S21440066000800040D9014000EF01400001004020DA
S2144006702DE9F843664D4FF400362E61C5F8A0606C
S214400680644B08271F61C3F8A0706E66C5F890607B
S2144006906E656E62C5F880602A6F22F400322A6763
S2144006A06A6F22F400326A675F66C3F890705F65CF
S2144006B05F62C3F880701A6F22F008021A675A6F9A
S2144006C022F008025A671F602E601F632E63DFF811
S2144006D07C8100234FF480024FF0805140464E4CC0
S2144006E0A04700234FF400124FF080514046A047E9
S2144006F000234FF000724FF080514046A047002341
S2144007004FF480024FF080514046A04700234FF4FC
S21440071000124FF080514046A04700234FF0007231
S2144007204FF080514046A0473C4C4FF00209C4F879
S21440073000904FF08008C4F80080636843F00103DF
S21440074063603A4601212046354B984700220121F6
S2144007502046344B9847002201212046324B98478A
S214400760636823F0020363600022012120462F4B7A
S2144007709847636823F080036360636843F0100320
S21440078063602B492B482C4B9847C2B20121204628
S2144007902A4B984720462A4B9847012323606E638E
S2144007A040F6B830274CA0472E6340F6B830A047F6
S2144007B02E63A820244CA0471F20A047D320A04744
S2144007C00020A0474020A047A120A047C820A0471F
S2144007D0DA20A0474846A0478120A0478F20A04760
S2144007E0A420A047A620A047D520A0474046A04723
S2144007F08D20A0471420A047DB20A0474020A047DC
S214400800D920A047F120A047AF20A047BDE8F883F5
S21440081000120E4000100E406D0B4000008000405D
S2144008205F0240002302400041024000A502400013
S21440083080D1F00880841E00B9024000CF024000FC
S214400840AD014000010040203106400000140E403B
S21440085038B505460822094B1A63094C0121204643
S214400860084B984701231A4629462046064CA0477F
S2144008704FF4FD70054B984738BD00BF00100E4042
S21440088000800040D9014000EF01400001004020B8
S21440089010B51048104B98473E2100200F4B984704
S2144008A00F4CA0470028FCD00E4B98470E4A0F4BE3
S2144008B09A620F4CA0470028FCD002200D4B984768
S2144008C000200D4B98470D4B98470248024B9847DF
S2144008D010BD00BF00A3E11171134000FD0D4000A4
S2144008E0510E4000610E4000013F182000060E40A9
S2144008F0710E4000610D4000990D400065124000A9
S214400900F8B54FF40042484B5A60BFF34F8FBFF3E1
S2144009106F8F464B0022C3F850225A6942F4003289
S2144009205A61BFF34F8FBFF36F8FD3F88070C7F312
S2144009304E3607F007000430C7F3C907B7FA87FEFC
S2144009400EF01F0EBFF34F8F4FF0FF3404FA00FC3B
S21440095006FA00F004FA0EF407FA0EFE1D463A4672
S214400960734640EA0301C5F86012013A2344B2F1E7
S214400970FF3FF6D1013E6044B6F1FF3FEFD1BFF3F3
S2144009804F8F2A4B5A6942F480325A61BFF34F8FD9
S214400990BFF36F8F264A27495160A1F58071516099
S2144009A0BFF34F8FBFF36F8FD3F8902222F0010230
S2144009B0C3F89022D3F8942222F00102C3F894227E
S2144009C0BFF34F8FBFF36F8F0A201B4CA0470B20FF
S2144009D0A0470C20A0471020A0471120A047174B47
S2144009E04FF480721A61C3F8A0201A63A3F580639F
S2144009F04FF400625A61C3F8A0205A66C3F89020AC
S214400A005A651A62C3F88420196F21F40061196789
S214400A10596F21F400615967C3F8C020C3F8D42049
S214400A20C3F8B020F8BD00BF50180E4000ED00E0FF
S214400A30000C0E400C08005A810E400000120E407A
S214400A40C0F8841053004FF40042B2FBF3F2013A70
S214400A50C2F30D02C0F88C207047016370474163B3
S214400A60704721F00061B1F1405F05D1836B1342BE
S214400A7014BF012000207047C36BF8E74264B1F111
S214400A80C05F3AD013D8B1F1006F25D0B1F1805F86
S214400A900AD1036F13430367436F416F0B4023EA4A
S214400AA002034367426070470029FBD17047B1F1AB
S214400AB0205F21D009D8B1F1005FF3D1036F134313
S214400AC00367436F13434367ECE7B1F1405F13D0CE
S214400AD0B1F1605F10D0E5E710B4016F046FD34307
S214400AE021401C4619400167436F416F0B4023402D
S214400AF0436742605DF8044B7047036F016F0B40DD
S214400B0023EA02030367436F13434367CAE741641C
S214400B1012F0010F0DD1016612F00A0F0BD00162E0
S214400B2012F0020F09D112F0080F08D0C0F8841056
S214400B3005E04166F0E74162F2E7C0F880104161A7
S214400B400160704710B4019C41644CB901664BB1DA
S214400B5001654AB94163016101605DF8044B704725
S214400B604166F4E74165F4E70163F4E770B582B0A7
S214400B70054616461C46B1F1005F14D00AD9B1F1BD
S214400B80405F24D0B1F1605F21D0B1F1205F17D033
S214400B9000201AE0B1F1805F05D0B1F1C05F02D00D
S214400BA0B1F1006FF4D132462846114B984714F005
S214400BB0010F02D12E66012007E06E66012004E098
S214400BC01A4631460B4B9847012002B070BD04F0E0
S214400BD001030093C4F38003B1F1605F14BF0022A9
S214400BE0012231462846044CA0470120EDE700BFCD
S214400BF07D0A40000F0B4000450B400012F0100FDE
S214400C0012D0C0F8B01012F0200F07D0C0F8D410A1
S214400C1012F0400F05D0C0F8C0107047C0F8D01092
S214400C20F6E7C0F8C4107047C0F8B41070470164C7
S214400C307047C06C7047806C704700002DE9F041EB
S214400C40044688460E4B9847054620460D4B984727
S214400C50054013D00C4C04F1600603E0B4420DD0BE
S214400C6010345DB120684045F8D161682942F5D01E
S214400C70E3689847636825EA0305EFE7BDE8F08137
S214400C80330C4000370C4000F80B4020F8B5184CA9
S214400C902668062E2AD84FF0000C6446154F04E00E
S214400CA00134E4B2A446A64209D3A64625017D599E
S214400CB08D42F5D107EB04156D689542F0D10D4D88
S214400CC04FEA0E1E05EB0E0445F80E106260A36058
S214400CD00699E1600136664505D011461A46064B30
S214400CE098470020F8BD02490E60F6E70120F8BD9F
S214400CF0680C4020F80B4020FD0B400008B50A2148
S214400D000148024B984708BD000E0E403D0C40007F
S214400D1008B50B210148024B984708BD00100E400D
S214400D203D0C400008B50C210148024B984708BDD1
S214400D3000120E403D0C400008B510210148024B01
S214400D40984708BD00140E403D0C400008B51121E0
S214400D500148024B984708BD00160E403D0C400027
S214400D60032811D0042812D002280CBF4FF48071FB
S214400D700021084A136B23F440730B431363936EAE
S214400D8013F0080FFBD070474FF44071F1E74FF473
S214400D900071EEE700060E40174A136B23F070030F
S214400DA018431063936E13F0080F0AD14FF4805324
S214400DB011498A6E12F0080F03D1013BF9D1012088
S214400DC070470D4A136B23F0030343F0020313638B
S214400DD0936E13F0080F0AD14FF4805306498A6E7B
S214400DE012F0080F05D1013BF9D1012070470020D1
S214400DF070470020704700BF00060E40A0B90E485E
S214400E00036A090289B20D4A1A400D4B134319432F
S214400E1001620246936E13F0010FFBD0064A116A38
S214400E20084B0B431362704703490B6A064A1A4045
S214400E30064B13430B62704700060E40FCFFC8FF8C
S214400E400100370000003701FCFFC8FE02003701F2
S214400E50024B986E00F48030704700BF00060E408C
S214400E604FF00052014B9A62704700BF00060E409A
S214400E70024B986E00F00200704700BF00060E401E
S214400E803F281ED81F280CD8114B9A69012383404F
S214400E90934318D0012303FA00F00D4B186100204D
S214400EA0704720380A4BD3F80821012383409343E8
S214400EB00BD0012303FA00F0054BC3F800010020D5
S214400EC0704701207047002070470020704700BFE1
S214400ED000060E4070470000104A136F23F4C0030C
S214400EE043F480031367116A0D4B0B431362936EF2
S214400EF013F0080FFBD04FF4FA7300BF013BFCD150
S214400F00064A136A13F0080FFBD0044A136F23F403
S214400F10C00343F480031367704700BF00060E40CB
S214400F20040037002DE9F843431E042B00F20781E6
S214400F30DFE813F00500050015001500F600814AAD
S214400F40136923F00403136101227F4B1A70BFF329
S214400F505F8F62B6BFF34F8F30BFBDE8F88304465D
S214400F6003280CBF00204FF40010784B984772B609
S214400F70BFF35F8F0022744B1A700122744B1A70B5
S214400F80744B1F6A1D6B744AD2F800809E6A734A7F
S214400F903A431A6205F00309B9F1010F40F289801D
S214400FA025F0030141F0010119631A46936E13F0D0
S214400FB0080FFBD011F0700F08D021F07001654B80
S214400FC019631A46936E13F0080FFBD0644B98478C
S214400FD0604A936E13F4003FFBD05E4A116A614B41
S214400FE00B4043F45C131362936E13F4803FFBD0C4
S214400FF028F47063584A1360042C5CD0524C01238A
S2144010002370BFF35F8F62B6574B984772B6BFF3F5
S2144010105F8F0023237017F0020F55D04D4A136A96
S21440102052491940524B0B431362116A514B0B40C5
S21440103043F45C131362504B3340002B6ED046F0A3
S2144010400056444B9E620221B9F1020F04D1414A38
S214401050936E13F0020FFBD03E4A136B23F07003DF
S21440106005F0700003431363936E13F0080FFBD034
S214401070394BC3F80080A3F5C0631D631A46936ED0
S21440108013F0080FFBD0334A936E0B42FCD000227D
S2144010902F4B1A70394B1B681BB198470022374BB1
S2144010A01A600122284B1A70BFF35F8F62B6BDE804
S2144010B0F88329467EE7A2F5C062116A304B0B40A2
S2144010C043F45C13136299E717F0010FB3D0214B3A
S2144010D01B6A13F0010F0BD11E490B6A294A1A40AE
S2144010E0294B13430B620A46936E13F0010FFBD055
S2144010F0184B1B6A13F0807F08D1164A116A234B9F
S2144011000B431362936E13F4803FFBD0114A116A6F
S214401110184B0B4043F45C1313628CE7002193E7B3
S214401120084A136943F004031361194A194B1A60BD
S2144011300122054B1A70BFF35F8F62B630BFBDE821
S214401140F88300BF00ED00E018004020D50E4000B8
S2144011506C0C402000060E40000C0E400800370085
S214401160610E4000FFFFC8FED90E4000FCFFC8FEDF
S2144011700200370187FFC8FF0000FF07700C4020C1
S214401180FEFFC8FFFCFFC8FF010037000000370124
S214401190040000A510180E40FEE7000000B583B01E
S2144011A0254B264A9A4210D0254B234A9A420CD2C7
S2144011B0013B9B1A23F00303043313441F4951F8A1
S2144011C0040B42F8040B9A42F9D11E4B1E4A9A422F
S2144011D00AD2013B9B1A23F0030304331344002135
S2144011E042F8041B9342FBD1184A194B23F07F0365
S2144011F09360EFF31083B3FA83F35B09019372B6FF
S214401200BFF35F8F0022134B1A700199124A13687E
S21440121043F470031360BFF34F8FBFF36F8F29B152
S21440122001220C4B1A70BFF35F8F62B60B4B984788
S2144012300B4B9847FEE700BF000040205C6F400025
S214401240D8094020E40C4020D809402000ED00E0BA
S214401250000040001800402088ED00E001244000D7
S214401260811740003B4B1B6B03F00303012B1DD043
S21440127083B1022B36D0374B1B6B03F07003702BB9
S2144012805FD0344B1A6B3449C2F302120B68D3401A
S2144012900B607047314B5B6913F0800F14BF4FF4FF
S2144012A000424FF4FA422C4B1A60E4E7294B1B6A83
S2144012B013F0807F03D02A4A274B1A60DBE7294A7F
S2144012C0254B1A60234B1B6A03F07003102B05D086
S2144012D0202BD0D1224A204B1A60CCE7224A1E4B04
S2144012E01A60C8E71B4B1B6A13F0807F16D01C4A57
S2144012F0194B1A60174B1B6B03F00303022BBAD132
S214401300144A916A926A1448C1F30A41036801FB81
S2144013100333D2B2B3FBF2F30360ACE7114A0E4B91
S2144013201A600C4B1B6A03F07003102B05D0202B61
S214401330E0D10B4A084B1A60DCE70B4A064B1A60B2
S214401340D8E7054A13680949A1FB03135B081360F5
S214401350704700BF00060E401C00402010180E408C
S214401360001BB70000093D0000127A00ABAAAAAAEB
S214401370164B984213D9164B984215D9154B98429E
S21440138016D9154B984217D9144B984218D9144B76
S214401390984294BF134A144A144B1A6070474FF051
S2144013A08062124B1A607047114A104B1A607047A1
S2144013B0104A0E4B1A6070470F4A0C4B1A60704723
S2144013C04FF00422094B1A60704700BFBFF35E011E
S2144013D07FE7BD023FDB1C04FFCE7B05BFC2DA06BB
S2144013E07FB639080005000400060004000C0E40D5
S2144013F00001000400020004000300040A4B1B68BE
S21440140053B1094B1B681A180849914208DB10462D
S214401410054A106018467047054A034B1A60F0E7C5
S2144014204FF0FF30704700BF740C4020FCFF452053
S214401430E82E40200122014B1A607047800C402065
S214401440034A1368643313600122024B1A607047E4
S214401450200040207C0C402008B54FF080524FF0D2
S21440146020510B480B4B984768B901220A4B1A602B
S2144014700A4B1B6833B10A4B1B68642B02D9643B8A
S214401480074A136008BD0022034B1A6008BD00BF20
S21440149000140E40630A4000780C4020840C402024
S2144014A02000402010B5084B18684000074B98476E
S2144014B0074C0022074BA04702460B460020064931
S2144014C0A047064B984710BD20004020411B4000D7
S2144014D0811E400000408F400000F03F51204000F9
S2144014E02DE9F047A2B00122484B1A60484B1E68CF
S2144014F00024484B1C60484B9847484B9847024648
S2144015000B46474902A8474DA847474B1022232180
S21440151002A8464DA847464FDFF82CA1DFF82C819D
S2144015200CE01E462FE03320424B984740E03320E5
S214401530404B9847374B1B68002B50D13B689C422A
S21440154057D20134E201B2FBF3F2012300930A239F
S214401550D2B202210846384DA8472D4B1B689E4202
S214401560DFD02D4B98472D4B984702460B462C49CB
S21440157002A82C4EB0472C4B1022232102A82B4EFB
S214401580B047234B1E684FF4807150462B4B98470C
S2144015901F4B1D68002DC6D041F22C72002341F22D
S2144015A02B700021E8FB0501254DA847214B9847A5
S2144015B04FF480715046234B9847154B1D68002DBD
S2144015C0B5D041F22C72002341F22B700021E8FB8B
S2144015D00501DFF86C90C847164B9847AAE70024E9
S2144015E000940A23802202210846134DA847074B41
S2144015F01C60002400940A238022022108460E4DD7
S214401600A847024B1C6022B0BDE8F087840C4020FF
S21440161020004020800C4020A5144000851B400040
S2144016209C6C4000ED2440000C004020D904400053
S2144016302400402001004020F50340005F0A40009F
S214401640F12040005B0A400000120E4000A3E1116A
S2144016502DE9F04182B00C20DFF82081C0473B4D99
S21440166000234FF480724FF040512846384FB84719
S214401670384C2046C0472846C047374E3046C047BD
S21440168009234FF080524FF020512046B847092397
S2144016904FF000424FF020512846B84709234FF4F8
S2144016A000224FF020513046B8473C224FF0805140
S2144016B020462A4FB8473C224FF000412046B847C4
S2144016C03C224FF400212046B847254B0093402348
S2144016D04FF0805210212046224FB847224B0093AD
S2144016E050234FF000420C212846B8471F4B00932A
S2144016F050234FF400220A213046B8474FF080511D
S21440170020461B4FB8474FF000412846B8474FF495
S21440171000213046B8472046164CA0472846A047EA
S2144017203046A047144B4FF480321A604FF4805234
S2144017301A604FF480621A60802283F8102383F880
S2144017400C2383F80A2302B0BDE8F08100120E4055
S2144017506D0B400000140E40000E0E40410A400043
S214401760591440008D0C4000351440004114400090
S2144017702F0C4000330C400000E100E0810E40009A
S2144017802DE9F043A1B0374B9847374B98474FF475
S2144017900042364B5A60364B9847364B9847364B46
S2144017A0984702460B4635496846354CA047354D66
S2144017B02B46102223216846334CA0472B46102246
S2144017C04B213248A0474FF480713148314B9847FF
S2144017D0314B9847DFF8E080DFF898902F4D27E0B0
S2144017E0C847254B984702460B4624496846244C32
S2144017F0A047244B102223216846234CA0470023B1
S214401800C8F8003018E0264B1B68642B02D9643BAE
S214401810234A13604FF080524FF020512846214B08
S214401820984718B91E4A1368643313601E4B98478E
S214401830D8F80030002BD3D11C4B1B686BB11C4C26
S2144018404FF08057174E3A464FF020512846B04743
S2144018500028D8D1013CF6D1DCE70220154B98474A
S214401860E6E700BF010940009108400050180E40CE
S21440187071054000A5144000851B40009C6C40004C
S214401880ED2440000C004020D9044000986C4000F5
S21440189000120E405B0A40005116400000140E40F5
S2144018A020004020630A4000E1144000780C4020AD
S2144018B0001BB700250F40007C0C402081F0004103
S2144018C002E000BF83F0004330B54FEA41044FEAE0
S2144018D0430594EA050F08BF90EA020F1FBF54EA7B
S2144018E0000C55EA020C7FEA645C7FEA655C00F017
S2144018F0E2804FEA5454D4EB5555B8BF6D420CDDE8
S2144019002C4480EA020281EA030382EA000083EA6A
S214401910010180EA020281EA0303362D88BF30BD0A
S21440192011F0004F4FEA01314FF4801C4CEA113160
S21440193002D0404261EB410113F0004F4FEA0333BF
S2144019404CEA133302D0524263EB430394EA050F4A
S21440195000F0A780A4F10104D5F1200E0DDB02FAB9
S2144019600EFC22FA05F2801841F1000103FA0EF24D
S214401970801843FA05F359410EE0A5F120050EF113
S214401980200E012A03FA0EFC28BF4CF0020C43FA44
S21440199005F3C01851EBE37101F0004507D54FF051
S2144019A0000EDCF1000C7EEB00006EEB0101B1F5A1
S2144019B0801F1BD3B1F5001F0CD349085FEA3000E7
S2144019C04FEA3C0C04F101044FEA445212F5800FF2
S2144019D080F09A80BCF1004F08BF5FEA500C50F18F
S2144019E0000041EB045141EA050130BD5FEA4C0C72
S2144019F0404141EB010111F4801FA4F10104E9D1FB
S214401A0091F0000F04BF01460020B1FA81F308BFF1
S214401A102033A3F10B03B3F120020CDA0C3208DDBD
S214401A2002F1140CC2F10C0201FA0CF021FA02F198
S214401A300CE002F11402D8BFC2F1200C01FA02F108
S214401A4020FA0CFCDCBF41EA0C019040E41AA2BF2D
S214401A5001EB0451294330BD6FEA04041F3C1CDAF5
S214401A600C340EDC04F11404C4F1200220FA04F015
S214401A7001FA02F340EA030021FA04F345EA0301BF
S214401A8030BDC4F10C04C4F1200220FA02F001FA81
S214401A9004F340EA0300294630BD21FA04F0294603
S214401AA030BD94F0000F83F4801306BF81F480119C
S214401AB00134013D4EE77FEA645C18BF7FEA655C0F
S214401AC029D094EA050F08BF90EA020F05D054EAE1
S214401AD0000C04BF1946104630BD91EA030F1EBFE6
S214401AE00021002030BD5FEA545C05D140004941EA
S214401AF028BF41F0004130BD14F580043CBF01F5DD
S214401B00801130BD01F0004545F0FE4141F47001C2
S214401B104FF0000030BD7FEA645C1ABF194610469D
S214401B207FEA655C1CBF0B46024650EA013406BF9E
S214401B3052EA033591EA030F41F4002130BD00BF5D
S214401B4090F0000F04BF0021704730B54FF480641A
S214401B5004F132044FF000054FF0000150E700BF9B
S214401B6090F0000F04BF0021704730B54FF48064FA
S214401B7004F1320410F0004548BF40424FF00001E7
S214401B803EE700BF42004FEAE2014FEA31014FEA2A
S214401B9002701FBF12F07F4393F07F4F81F0605179
S214401BA0704792F0000F14BF93F07F4F704730B5E8
S214401BB04FF4607401F0004521F0004120E700BF7B
S214401BC050EA010208BF704730B54FF000050AE002
S214401BD050EA010208BF704730B511F0004502D503
S214401BE0404261EB41014FF4806404F132045FEA05
S214401BF0915C3FF4DCAE4FF003025FEADC0C18BFAA
S214401C0003325FEADC0C18BF033202EBDC02C2F19F
S214401C10200300FA03FC20FA02F001FA03FE40EA31
S214401C200E0021FA02F11444C1E600BF70B54FF031
S214401C30FF0C4CF4E06C1CEA11541DBF1CEA135513
S214401C4094EA0C0F95EA0C0F00F0DEF82C4481EA7B
S214401C50030621EA4C5123EA4C5350EA013518BF9B
S214401C6052EA033541F4801143F4801338D0A0FB88
S214401C7002CE4FF00005E1FB02E506F00042E0FB35
S214401C8003E54FF00006E1FB03569CF0000F18BF3B
S214401C904EF0010EA4F1FF04B6F5007F64F54074E3
S214401CA004D25FEA4E0E6D4146EB060642EAC62176
S214401CB041EA55514FEAC52040EA5E504FEACE2EE3
S214401CC0B4F1FD0C88BFBCF5E06F1ED8BEF1004FE6
S214401CD008BF5FEA500E50F1000041EB045170BD62
S214401CE006F0004646EA010140EA020081EA0301A6
S214401CF0B4EB5C04C2BFD4EB0C0541EA045170BDA2
S214401D0041F480114FF0000E013C00F3AB8014F11B
S214401D10360FDEBF002001F0004170BDC4F1000464
S214401D20203C35DA0C341BDC04F11404C4F12005E5
S214401D3000FA05F320FA04F001FA05F240EA020040
S214401D4001F0004221F0004110EBD37021FA04F676
S214401D5042EB06015EEA430E08BF20EAD37070BD30
S214401D60C4F10C04C4F1200500FA04F320FA05F08F
S214401D7001FA04F240EA020001F0004110EBD37091
S214401D8041F100015EEA430E08BF20EAD37070BD01
S214401D90C4F1200500FA05F24EEA020E20FA04F3DA
S214401DA001FA05F243EA020321FA04F001F0004189
S214401DB021FA04F220EA020000EBD3705EEA430EFA
S214401DC008BF20EAD37070BD94F0000F0FD101F029
S214401DD00046400041EB010111F4801F08BF013C62
S214401DE0F7D041EA060195F0000F18BF704703F0A0
S214401DF00046520043EB030313F4801F08BF013D27
S214401E00F7D043EA0603704794EA0C0F0CEA1355E2
S214401E1018BF95EA0C0F0CD050EA410618BF52EA9C
S214401E204306D1D181EA030101F000414FF00000A2
S214401E3070BD50EA410606BF1046194652EA4306B0
S214401E4019D094EA0C0F02D150EA013613D195EA24
S214401E500C0F05D152EA03361CBF104619460AD16C
S214401E6081EA030101F0004141F0FE4141F4700176
S214401E704FF0000070BD41F0FE4141F4780170BD66
S214401E8070B54FF0FF0C4CF4E06C1CEA11541DBFCB
S214401E901CEA135594EA0C0F95EA0C0F00F0A7F8CD
S214401EA0A4EB050481EA030E52EA03354FEA0131FA
S214401EB000F088804FEA03334FF0805545EA13130D
S214401EC043EA12634FEA022245EA111545EA1065D5
S214401ED04FEA00260EF000419D4208BF964244F16C
S214401EE0FD0404F5407402D25B084FEA3202B61A8B
S214401EF065EB03055B084FEA32024FF480104FF45F
S214401F00002CB6EB020E75EB030E22BFB61A7546D2
S214401F1040EA0C005B084FEA3202B6EB020E75EB65
S214401F20030E22BFB61A754640EA5C005B084FEACD
S214401F303202B6EB020E75EB030E22BFB61A75469A
S214401F4040EA9C005B084FEA3202B6EB020E75EBA5
S214401F50030E22BFB61A754640EADC0055EA060E66
S214401F6018D04FEA051545EA16754FEA06164FEAA9
S214401F70C30343EA52734FEAC2025FEA1C1CC0D155
S214401F8011F4801F0BD141EA00014FF000004FF0E2
S214401F90004CB6E711F4801F04BF01430020B4F1A3
S214401FA0FD0C88BFBCF5E06F3FF6AFAEB5EB030C5B
S214401FB004BFB6EB020C5FEA500C50F1000041EB58
S214401FC0045170BD0EF0004E4EEA113114EB5C0425
S214401FD0C2BFD4EB0C0541EA045170BD41F48011F8
S214401FE04FF0000E013C90E645EA060E8DE60CEA00
S214401FF0135594EA0C0F08BF95EA0C0F3FF43BAF1D
S21440200094EA0C0F0AD150EA01347FF434AF95EAD3
S2144020100C0F7FF425AF104619462CE795EA0C0FB7
S21440202006D152EA03353FF4FDAE1046194622E784
S21440203050EA410618BF52EA43067FF4C5AE50EA5E
S21440204041047FF40DAF52EA43057FF4EBAE12E74E
S2144020504FEA4102B2F1E04324BFB3F5001CDCF185
S214402060FE5C0DD901F0004C4FEAC0024CEA5070BD
S214402070B2F1004F40EB830008BF20F001007047EC
S21440208011F0804F21D113F13872BCBF01F00040EF
S214402090704741F480114FEA5252C2F11802C2F121
S2144020A0200C10FA0CF320FA02F018BF40F00100A2
S2144020B04FEAC1234FEAD32303FA0CFC40EA0C0054
S2144020C023FA02F34FEA4303CCE77FEA625307D191
S2144020D050EA01331EBF4FF0FE4040F440007047C8
S2144020E001F0004040F0FE4040F40000704700BF62
S2144020F053B94AB9002908BF00281CBF4FF0FF312A
S2144021004FF0FF3000F07AB9ADF1080C6DE904CE1F
S21440211000F006F8DDF804E0DDE9022304B070477D
S2144021202DE9F0478C460D460446089E002B51D1BB
S2144021308A4217466DD9B2FA82FEBEF1000F0BD026
S214402140CEF1200C01FA0EF520FA0CFC02FA0EF73E
S2144021504CEA050C00FA0EF44FEA174A250CBCFB75
S214402160FAF81FFA87F90AFB18CC45EA0C4508FB33
S21440217009F3AB420AD9ED1908F1FF3280F023810A
S214402180AB4240F22081A8F102083D44ED1AA4B2C9
S214402190B5FBFAF00AFB105544EA054400FB09F982
S2144021A0A14509D9E41900F1FF3380F00A81A14521
S2144021B040F2078102383C44A4EB090440EA084058
S2144021C00021002E61D024FA0EF4002334607360A0
S2144021D0BDE8F0878B4207D9002E54D0002186E810
S2144021E021000846BDE8F087B3FA83F1002940F0A5
S2144021F08E80AB4202D3824200F2FA80841A65EBAC
S21440220003050120AC46002E3FD086E81010BDE8FE
S214402210F08712B90127B7FBF2F7B7FA87FEBEF18F
S214402220000F34D1EB1B3A0C1FFA87FC0121B3FB9D
S214402230F2F8250C02FB183345EA03450CFB08F37D
S214402240AB4207D9ED1908F1FF3002D2AB4200F29B
S214402250D1808046ED1AA3B2B5FBF2F002FB1055D2
S21440226043EA05440CFB00FCA44507D9E41900F1F9
S214402270FF3302D2A44500F2B8801846A4EB0C0403
S21440228040EA08409DE731463046BDE8F087CEF14B
S214402290200405FA0EF307FA0EF720FA04F83A0C73
S2144022A025FA04F448EA0308B4FBF2F14FEA18456D
S2144022B002FB11441FFA87FC45EA044501FB0CF378
S2144022C0AB4200FA0EF409D9ED1901F1FF3080F067
S2144022D08A80AB4240F2878002393D44EB1A1FFAAF
S2144022E088F5B3FBF2F002FB103345EA034500FBEA
S2144022F00CF3AB4207D9ED1900F1FF386FD2AB4271
S2144023006DD902383D44EB1A40EA01418FE7C1F1EE
S214402310200722FA07F88B4005FA01F448EA03033F
S21440232020FA07FE4FEA134CFD404EEA040EB5FB7A
S214402330FCF94FEA1E440CFB19551FFA83F844EA91
S214402340054509FB08F4AC4202FA01F200FA01FA2C
S21440235008D9ED1809F1FF3043D2AC4241D9A9F172
S21440236002091D442D1B1FFA8EFEB5FBFCF00CFB2C
S21440237010554EEA054400FB08F8A04507D9E41876
S21440238000F1FF3529D2A04527D902381C4440EA3F
S2144023900940A4EB0804A0FB02894C45C6464D46BE
S2144023A015D312D056B1BAEB0E0364EB050404FA0B
S2144023B007F7CB401F43CC40376074600021BDE830
S2144023C0F0871846F8E69046E0E6C245EAD2B8EB13
S2144023D0020E69EB03050138E4E72846D7E7404696
S2144023E091E78146BEE7014678E702383C4445E738
S2144023F0084608E7A8F102083D442BE7704700BFAF
S21440240070B50F4E0F4D761BB61018BF002405D082
S214402410013455F8043B9847A642F9D10A4E0B4D75
S214402420761B04F085FDB61018BF002406D0013494
S21440243055F8043B9847A642F9D170BD70BD00BF21
S2144024403C6F40003C6F4000446F40003C6F400093
S21440245070B4860746D0541E002A41D0CAB20346FE
S21440246002E014F1FF343BD303F8012B9D07F8D16B
S214402470032C2ED9CDB245EA05250F2C45EA054555
S21440248019D903F110022646103E0F2E42F8105C72
S21440249042F80C5C42F8085C42F8045C02F1100218
S2144024A0F2D8A4F1100222F00F0204F00F0410320A
S2144024B0032C13440DD91E462246043A032A46F8F6
S2144024C0045BFAD8221F22F003020432134404F0BD
S2144024D003042CB1C9B21C4403F8011B9C42FBD137
S2144024E070BC704714460346C2E700BF0EB4F0B552
S2144024F09CB021AB0F4953F8042B019305466FF06F
S2144025000044086802954FF402774FF6FF7602A91A
S2144025100695ADF8147004940794ADF8166000F074
S2144025200BF8029B00221A701CB0BDE8F04003B0C6
S214402530704700BF280040202DE9F04FC3B00C463E
S2144025400B9192460F930C9002F00EFA03681A9382
S214402550184603F0D5F8A3891990190603D52369C0
S214402560002B01F0038000230DF1C8091393159347
S21440257014932793269318931B930993CDF894901E
S214402580C846169317939AF800305446E3B1252B65
S21440259002D119E0252B03D014F8013F002BF9D1C6
S2144025A0A4EB0A0585B1269B279AC8F800A00133FC
S2144025B02A44072BC8F80450279226937FDC08F15C
S2144025C00808099B2B4409932378002B7FD00023CF
S2144025D01A468DF8773019460D939B464FF0FF30DC
S2144025E063780A9004F1010A0AF1010AA3F1200077
S2144025F0582800F2C183DFE810F03802BF03BF035B
S2144026004002BF03BF03BF03BF03BF03BF03450270
S2144026100302BF035D006B02BF0386029D039D035A
S2144026209D039D039D039D039D039D039D03BF0343
S214402630BF03BF03BF03BF03BF03BF03BF03BF0345
S214402640BF0337035703BF035703BF03BF03BF038D
S214402650BF039803BF03BF03AD03BF03BF03BF035E
S214402660BF03BF035902BF03BF031E03BF03BF031D
S214402670BF03BF03BF03BF03BF03BF03BF03BF0305
S214402680C602DB025703570357038B02DB02BF0326
S214402690BF039002BF039D02CC01B4020802BF03F1
S2144026A0E101BF037E00BF03BF030D020D980F93E9
S2144026B040420D904BF0040B9AF8003094E725AA60
S2144026C00B990C9803F08AF840B9C84679E7279BDF
S2144026D023B10C980B9925AA03F080F80B9B9B8995
S2144026E013F0400F099B18BF4FF0FF33099309982A
S2144026F043B0BDE8F08F1BF0200F119340F0DD8112
S2144027000F9A1BF0100F134640F06E851BF0400FDB
S21440271000F06A8514880432002501230F920027B2
S2144027208DF877700A994A1C00F065822BF080027B
S214402730079254EA050240F06482002940F03C8447
S214402740002B40F0D7841BF001030E9300F0048664
S21440275042AE302306F8413D0A9B0E9A9342B8BFDC
S214402760134608930023129317B1089B013308932E
S214402770079B13F00203109302D0089B0233089382
S214402780079B13F0840540F00E830D9B089AA3EB3D
S214402790020BBBF1000F40F30683BBF1100F279CE2
S2144027A0269A29DD43462146A84610270C9C0B9DB9
S2144027B006E0ABF1100BBBF1100F03F1080318DD78
S2144027C00132B74826921031072A279183E88100C4
S2144027D0EFDD25AA2946204603F000F800287FF4BE
S2144027E07DAFABF1100BBBF1100F2799269A4B46E5
S2144027F0E6DC45460C4698460132A94B26925C4498
S214402800072A279488E8080800F398849DF877708C
S21440281008F1080877B1269B013301340DF17701A2
S2144028200122072B2794269388E8060000F3DB83D3
S21440283008F10808109B6BB1269B013302341EA991
S2144028400222072B2794269388E8060000F3D683B7
S21440285008F10808802D00F015830A9B0E9A9F1AEF
S214402860002F36DD102F269B8E4D27DD4246214613
S214402870B0464FF0100B2E460C9C0B9D04E0103FCC
S214402880102F02F1080215DD01331031072B279176
S214402890269382E84008F2DD25AA2946204602F023
S2144028A09DFF00287FF41AAF103F102F2799269BD4
S2144028B04A46E9DC35460C464646904601333C449B
S2144028C0072B2794269388E8A00000F3818308F11D
S2144028D00808079BDF0500F16882269B0E99C8F81A
S2144028E0006001330C44072B2794C8F80410269345
S2144028F000F34D8308F10808079B5B073AD50D9B0C
S214402900089A9D1A002D35DD102D269B20DD1026B9
S2144029100C9FDDF82CB004E0103D102D08F108089F
S21440292016DD01335E4A26931034072B279488E839
S2144029304400F1DD25AA5946384602F04FFF0028EC
S2144029407FF4CCAE103D102D279C269BC846E8DC75
S2144029500133534A26932C44072B279488E82400B7
S21440296008DD25AA0B990C9802F038FF00287FF462
S214402970B5AE279C099B0D9A08998A42ACBF9B1816
S2144029805B180993002C40F00D8300232693C8461D
S214402990F9E511931BF0200340F0E3811BF0100291
S2144029A040F02E841BF0400300F02A840F99134613
S2144029B00A4604320C880F920025B0E60F9A11930F
S2144029C0166800248DF87740151D002E00F0A78667
S2144029D00A9A531C00F009862146304602F088FACF
S2144029E0002800F0E186831B0E930A940F95CDF8DD
S2144029F01CB023EAE373089312949DF87770B3E60D
S214402A009AF8003001222B21EEE54BF0200B9AF885
S214402A100030E9E51193002A40F09587224B189341
S214402A201BF0200F40F011810F9A1BF0100F134639
S214402A3040F0E1831BF0400F00F0DD830433148840
S214402A400F9300251BF0010F00F00C8154EA05039C
S214402A5000F0088130239DF844208DF878308DF8BA
S214402A6079204BF0020B022359E69AF800300029F1
S214402A707FF4BAAD01222021B6E54BF0010B9AF85F
S214402A800030B1E50F9C23680D9318460028234676
S214402A9003F10403FFF60AAE0F939AF80030A3E55D
S214402AA0EC6C4000FC6C4000CC6C40004BF0100BD3
S214402AB01BF0200F11933FF423AE0F9D073525F0F2
S214402AC0070303F10802D3E900450F92012326E6E7
S214402AD09AF800302A2B0AF1010400F02787A3F168
S214402AE030000928A24600F2AD8600231C461AF89C
S214402AF0013B04EB840400EB4404A3F130000928B6
S214402B00F5D90A9472E54BF0800B9AF800306BE5E5
S214402B104BF0400B9AF8003066E59AF800306C2B84
S214402B2003BF9AF801304BF0200B0AF1010A4BF034
S214402B30100B59E5002A40F011871BF0200F40F09B
S214402B40F9841BF0100F40F0AC841BF0400F00F0EF
S214402B50A8840F9A136804320F92BDF824201A8076
S214402B6011E50F99B34B0C68189330227823043143
S214402B708DF8793011934BF0020B0F9100258DF8AC
S214402B8078200223CBE50F9911930A688DF8A02090
S214402B9000230A461F468DF87730043201230893F7
S214402BA0CDF81CB00A9712970F920E9328AEDFE529
S214402BB01193002A40F0EA861BF0200F5DD11BF0EF
S214402BC0100F40F008831BF0400F00F004830F996D
S214402BD0B1F900400431E51722462B460F91002AF2
S214402BE073F1000358DB0A999DF877704A1C4FF042
S214402BF001037FF49BAD54EA050200F0DF81CDF877
S214402C001CB0012B00F07B82022B40F00682189805
S214402C104E46230904F00F0143EA05732A091C4671
S214402C201546435C06F8013D54EA0503F1D1A9EB8D
S214402C3006030E9390E51193002A40F0A3867E4B40
S214402C4018931BF0200F3FF4EFAE0F9D073525F08D
S214402C50070303F108021BF0010F0F92D3E900456A
S214402C607FF4F4AE02235AE51193002A40F086869C
S214402C704BF0100B1BF0200FA1D00F9D073525F011
S214402C800705D5E90023002A05F108011D4673F122
S214402C9000030F911446A6DA2D27644265EB4505DE
S214402CA08DF8777001233DE51193002A40F0628647
S214402CB00F9D073525F0070303F108020F921A68A7
S214402CC015925B681493149B159D23F00044284688
S214402CD021464FF0FF32594B03F07CFA002840F073
S214402CE04A83284621464FF0FF32544B03F054FAAD
S214402CF0002840F0408315A80DC8149903F042FA06
S214402D00002840F030859DF877704D4E4D4B2BF0A7
S214402D108000079011980322002108920A914728C4
S214402D20D8BF1E460E9212911EE54BF0080B9AF83D
S214402D30003059E4A3F1300000231C461AF8013B4A
S214402D4004EB840400EB4404A3F130000928F5D9D1
S214402D500D944BE44BF0100B11931BF020033FF403
S214402D601DAE0F9D073525F0070303F10802D3E992
S214402D7000450F920023D2E41193002A40F0E785E5
S214402D80119A002A3FF4A3AC002301211F46089164
S214402D908DF8A020CDF81CB08DF877300A931293AA
S214402DA00E9128AEE4E4279C34E5119B652B40F356
S214402DB0A78015A80DC8149903F0DAF9002800F08A
S214402DC05081269B204AC8F8002001330134012256
S214402DD0072B27942693C8F8042000F36A8308F14B
S214402DE008081F9B139A279C934203DB079BDD072B
S214402DF07FF582AD269B19991A9AC8F800200133B0
S214402E000C44072BC8F804102794269300F39E839F
S214402E1008F10808139B5E1E002E7FF76DAD102E3E
S214402E20269B0A4D40F3F58122461027DDF830B048
S214402E300B9C13E0CC6C4000B86C4000FFFFEF7F6B
S214402E40AC6C4000A86C4000E86C4000FC6C400055
S214402E5008F10808103E102E40F3DA810133103294
S214402E60072B2792269388E8A000F1DD25AA214665
S214402E70584602F0B3FC00287FF430AC279A269BD5
S214402E80C846E7E70D9B089A9F1A002F7FF7E5ACE8
S214402E90102F269BB64D27DD42462146B0464FF0C2
S214402EA0100B2E460C9C0B9D04E0103F102F02F199
S214402EB0080215DD01331031072B2791269382E84F
S214402EC04008F2DD25AA2946204602F087FC002865
S214402ED07FF404AC103F102F2799269B4A46E9DC26
S214402EE035460C464646904601333C44072B2794CD
S214402EF0269388E8A00000F3328208F10808ACE484
S214402F00139B269F012B40F3FE810137013401239A
S214402F10072F27942697C8F80060C8F8043000F3B7
S214402F20038208F10808199A1A9BC8F8003001373E
S214402F301444072F27942697C8F8042000F30082ED
S214402F4008F1080815A80DC8149903F011F9139B49
S214402F50002840F00181013B013701361C44072F11
S214402F6026972794C8F80060C8F8043000F32781F5
S214402F7008F108081B9AC8F804200137144421AB0E
S214402F80072F27942697C8F800307FF7B3AC25AABA
S214402F900B990C9802F022FC00287FF49FAB279CEC
S214402FA0C846A9E425AA0B990C9802F017FC0028FD
S214402FB03FF4EBACFFF792BBDDF81CB0012B00F002
S214402FC03481022B25D1CDF81CB0002400251EE606
S214402FD025AA0B990C9802F001FC00287FF47EABE2
S214402FE0279CC84675E425AA0B990C9802F0F6FB78
S214402FF000287FF473AB279CC8461BE425AA0B9990
S2144030000C9802F0EBFB00287FF468AB279CC84680
S21440301020E4CDF81CB000240025494600E03146A7
S214403020E20842EA4572E80804F0070305461446FB
S214403030303354EA050201F8013C01F1FF36EED187
S214403040079AD2077FF5F3AD302B3FF4F0AD023947
S214403050302306F8013CA9EB01030E930E46FFF71A
S2144030607BBB1F99002940F32E82129B139A9342F2
S214403070A8BF1346002B1F460DDD269BC8F80060F0
S21440308001333C44072B2794C8F80470269300F37A
S2144030901F8308F10808129B002FA8BFDB1B002BDC
S2144030A01F4640F3D680102F269B314D40F3ED81CE
S2144030B042462146B0464FF0100B2E460C9C0B9DC8
S2144030C004E00832103F102F40F3DB81013310310B
S2144030D0072B2791269382E84008F2DD25AA294649
S2144030E0204602F07BFB00287FF4F8AA2799269B0F
S2144030F04A46E7E70A9B0E934E46FFF72DBB002D48
S21440310008BF0A2CC0F08F804E46204629460A2229
S2144031100023FEF7EDFF303206F8012D2046294603
S21440312000230A22FEF7E4FF04460D4654EA050350
S214403130EBD1A9EB06030E93FFF70EBB25AA0B991E
S2144031400C9802F04BFB00287FF4C8AA9DF87770D5
S214403150279CC846FFF75EBB5E1E002E7FF70AAF71
S214403160102E034D22DD22464FF0100B0C9C06E03D
S214403170FC6C4000103E102E08F1080815DD0137A3
S2144031801032072F2792269788E82008F2DD25AAD6
S2144031900B99204602F022FB00287FF49FAA103E9F
S2144031A0102E279A269FC846E9DC14460137344439
S2144031B0072F2794269788E860007FF7D9AE25AA80
S2144031C00B990C9802F00AFB00287FF487AA279CEC
S2144031D0269FC846CEE60F9A146813460433E51772
S2144031E00F9322462B46FAE404321C680F920123C2
S2144031F00025FFF794BA1C6804330F93002521E49A
S2144032000F990A4604320C680F920025FFF787BADA
S214403210144601333444072B2794269388E86000ED
S2144032207FF768ABB3E6DDF81CB0CDF81CB042AE15
S2144032303034012306F8414D0E93FFF78DBA25AA88
S2144032400B990C9802F0CAFA00287FF447AA279CEC
S214403250C8461F9A139B9A4244DB079BD90741D422
S214403260139B12989A1A1D1A9542A8BF1546002D10
S2144032700EDD2699C8F80450013106442C4407292F
S214403280C8F800602794269100F33B8208F10808AE
S214403290002DACBF561B1646002E7FF72DAB102ECA
S2144032A0269BB04DB5DD22461027DDF830B00B9C8E
S2144032B004E008F10808103E102EA9DD0133103254
S2144032C0072B2792269388E8A000F2DD25AA214600
S2144032D0584602F083FA00287FF400AA279A269BD5
S2144032E0C846E8E7269B19981A99C8F80010013393
S2144032F00444072B2794C8F80400269300F3F5816E
S21440330008F10808ACE7079BDA073FF5FEAD013742
S21440331001340123072F27942697C8F80060C8F881
S21440332004307FF725AE4AE725AA0B990C9802F0A1
S21440333055FA00287FF4D2A9279C269FC846F2E576
S21440334025AA0B990C9802F049FA00287FF4C6A9E2
S214403350279C269FC846F5E54E46FFF7FDB925AAA9
S2144033600B990C9802F03AFA00287FF4B7A9279CEC
S214403370C846FFF772BA159C22462046149C234640
S214403380214602F027FF002840F086820A9B013340
S214403390119B23F020030E9300F0E281472B00F0B0
S2144033A01E814BF480730793149B1F1E159B089336
S2144033B0BBBF3B4603F1004700232D231093119BD0
S2144033C0662B00F0BB81462B00F0DF800E9B089AF0
S2144033D0452B0CBF0A9B0A9D23A820A908BF5D1C4D
S2144033E0049003911FA802213B460290019500914C
S2144033F00C9800F075FB119B672B064640F0E08169
S2144034001BF0010F00F046827419169A0898179B15
S214403410394602F0ADFE002840F06581239BA3426A
S21440342006D230215A1C23921970239B9C42F9D80D
S2144034309B1B13930E9B472B00F0E980119B652B3B
S21440344040F3CD81119B662B1F9B129300F09E810B
S214403450139B129A1946914200F38A811BF0010F82
S21440346040F0138222EAE273089367230E92119388
S214403470109B002B40F0C4800A939DF87770FFF7AE
S21440348073B935460C464646904601333C44072BB6
S2144034902794269388E8A0003FF7D1AE08F10808A5
S2144034A0D7E60F9A136804320F92099A1A60FFF70C
S2144034B06AB825AA0B990C9802F090F900287FF478
S2144034C00DA9C8468DE4269B274AC8F8002001333C
S2144034D001340122072B27942693C8F8042072DC77
S2144034E008F1080829B9139B1BB9079BD8077FF535
S2144034F003AA269B19981A9AC8F800200133024658
S2144035002244072B2792C8F80400269300F38D81A7
S21440351008F108080029C0F265811399C8F80060D0
S21440352001338C18072B27942693C8F804107FF78E
S214403530E1A92CE50F9A09991368CD17084604327D
S21440354029460F92C3E90001FFF71DB825AA0B993B
S2144035500C9802F043F900287FF4C0A8279CC84680
S21440356058E400BFFC6C4000E86C400040210C98DA
S21440357001F00CFA0B9A10601061002800F0F281FE
S2144035800B9A40235361FEF7EEBF23A820A90A9C5E
S214403590049003911FA803210290089A01943B4689
S2144035A000910C9800F09CFA25460646119B462B47
S2144035B006EB05047FF429AF3378302B00F0788192
S2144035C01F9D2C4421E725AA0B990C9802F006F97A
S2144035D000287FF483A81F99279CC84682E70A9B49
S2144035E0002B08BF01230A93DBE630460A9402F01C
S2144035F087F80F950E90CDF81CB00346FFF7F9B943
S2144036002D2700238DF877700A93FFF7AEB81F9BDF
S21440361012931A46033304DB0A9B19469142BFF6BF
S21440362017AF119B023B11939DF844308DF88430C0
S214403630129B013B002B1F93BDBF129BC3F101039E
S2144036402D222B22092B8DF8852040F316810DF173
S21440365093042046AB4D00E0104685FB0312D91775
S214403660C1EBA20101EB8102A3EB420230320929F1
S21440367000F8012C0B4600F1FF32EDDC3033023807
S214403680D9B2844202F8011C40F265810DF18600F1
S214403690134601E013F8011B00F8011BA342F9D1C1
S2144036A001339B1A0DF18602134421AA9B1A139AE2
S2144036B01B93012A13440E9340F319810E9B199ACB
S2144036C013440E9323EAE373089300231293CFE642
S2144036D025AA0B990C9802F081F800287EF4FEAFDC
S2144036E0279CC846D7E42346A2E625AA0B990C9801
S2144036F002F074F800287EF4F1AF1F9A279CC84663
S214403700AEE525AA0B990C9802F068F800287EF4DE
S214403710E5AF1F9A139B279C9A1AC846B8E50A9BA2
S2144037201296062B28BF06230A96374608930F950F
S214403730CDF81CB00E93744EFFF716B823A820A9F8
S2144037400A9D049003911FA803210290089A0195B0
S2144037503B4600910C9800F0C3F9064644192BE707
S21440376006230A931DE62D278DF87770FFF7CDBA0E
S214403770199A139B1344129A0E93002A40F3B08072
S21440378023EAE37308936723119371E6002B40F313
S214403790C3800A9A002A40F099801BF0010F40F03F
S2144037A0958008930E9363E60A9B08930E930A90BF
S2144037B00F95CDF81CB012909DF87770FEF7D4BFE9
S2144037C0119B472B7FF420AE1BF0010F7FF4EEAE2B
S2144037D0239B9B1B13930E9B472B3FF418AF1F9BBB
S2144037E0129321E74F421031484D2FDA1024DDF86E
S2144037F030B004E008F10808103F102F26DD0133F2
S2144038001032072B27922693C8F80050C8F8044079
S214403810F0DD25AA0B99584601F0E0FF00287EF41B
S2144038205DAF279A269BC846E6E725AA0B990C98D3
S21440383001F0D4FF00287EF451AF1F99279A269BAB
S214403840C84667E600200A90FEF7D0BE01333A44E9
S214403850072B88E8A0002792269308F108087FF7F0
S2144038605CAE25AA0B990C9801F0B8FF00287EF4B0
S21440387035AF279A269BC8464FE6303330228DF820
S21440388087308DF8862022AB0FE7129B199A134497
S2144038900E9375E7239BCBE5149B1D4E002BB6BFBE
S2144038A02D279DF877708DF877701A4BFFF72FBA53
S2144038B0169A0898179B394602F05AFC00287FF45F
S2144038C07FAEC5F101051F952C449EE5129B199AC3
S2144038D013440A9A1A4422EAE2730E920893C7E502
S2144038E0129B0E9AC3F101031A441346D0E71BF00D
S2144038F0010312937FF4E2AE0E9B23EAE373089330
S214403900B6E500BF67666666E06C4000FC6C40004B
S214403910B46C4000B06C40000A9B13B91BF0010F1A
S21440392002D0199B0133D4E701233AE70F9D9AF85A
S2144039300130286840EAE0700A9028460430A246E3
S2144039400F90FEF751BE8DF87710FFF767B88DF8E9
S2144039507710FFF715BA0DF18603A6E68DF87710B7
S214403960FFF7EBB80C9A0C2313604FF0FF33099324
S214403970FEF7BDBE8DF87710FFF79AB98DF8771031
S214403980FFF776B98DF87710FFF759B98DF87710AD
S214403990FFF712B9024B13B1024800F005B8704762
S2144039A00000000035494000002301461A461846EC
S2144039B001F092BF02690B69934200F38D802DE9B6
S2144039C0F04F03F1FF3801F1140700F1140B57F8DC
S2144039D028205BF828304FEA880483B00132B3FBD6
S2144039E0F2F90BEB0403009407EB040A0193B9F1D8
S2144039F0000F39D000252E46BC46DE465CF8044B08
S214403A00DEF80030A2B209FB0255220C2C0C09FB52
S214403A100242ADB2751B96B2C6EB134615FA83F357
S214403A2006EB23469BB243EA0643E2454FEA12457D
S214403A304EF8043B4FEA2646E0D2009B5BF8033044
S214403A4093B9019C231F9B450CD254F8043C4BB9B8
S214403A50A4F1080302E01A68043B1AB99B4508F132
S214403A60FF38F8D3C0F81080044601F035FD002832
S214403A702EDB09F101095D46002357F8041B286830
S214403A808AB29A1A0B0C12FA80F2C3EB104303EB7D
S214403A90224392B242EA0342BA4545F8042B4FEA23
S214403AA02343EAD25BF828200BEB880382B91A1F1F
S214403AB093450BD253F8042C42B9083B02E01A68EF
S214403AC0043B1AB99B4508F1FF38F8D3C4F8108078
S214403AD0484603B0BDE8F08F002070470000000065
S214403AE02DE9F04F016C9BB00446279E92469B46BC
S214403AF041B1426C4A60012393408B6001F014FB55
S214403B0000232364BBF1000F5D4635DB00233360A2
S214403B109D4BAB4315D0504659460022002302F039
S214403B2027FB804600282DD0269A01231360289B29
S214403B30002B00F0BD809548186001381BB0BDE8EA
S214403B40F08F269A42F20F731360BAF1000F0DD130
S214403B50C5F3130555B9289B8D48002BEED000F1D0
S214403B600803289A13601BB0BDE8F08F289B89484D
S214403B70002BE3D0C31CF4E701232BF00045336051
S214403B80AB46C5E718AA19AB0192009352465B466E
S214403B90204601F041FD2B0D814671D0CBF3130238
S214403BA042F07F51189FCDF850805046A3F2FF3622
S214403BB041F440110022784BFDF784FE6CA3D3E914
S214403BC00023FEF733F86CA3D3E90023FDF77CFE11
S214403BD0CDE902013046FDF7C3FF69A3D3E90023D0
S214403BE0FEF724F802460B46DDE90201FDF76CFEBF
S214403BF0CDE9040102F004FB002202900023DDE937
S214403C00040102F0BFFA002840F07381029D162D91
S214403C1000F25D81614B03EBC503D3E900015246D8
S214403C205B4602F0CDFA002800F0C5816B1E029379
S214403C3000230E93BF1B7B1E069300F15481002386
S214403C400893029B002BC0F24581069A0D931146BD
S214403C501944002306910C93249B092B2AD8052B44
S214403C6040F35B86043B24930025249B023B032BB6
S214403C7000F24286DFE813F0D403C902DF03610492
S214403C80189F199E3E4406F23243202B40F38E8105
S214403C90C3F1400306F212409D402AFA00F0284342
S214403CA0FDF74EFF0123013EA1F1F871149381E721
S214403CB03B4843E7002161642046259101F00EFA17
S214403CC04FF0FF330A93259A0F9301230490206404
S214403CD024920B93199B002BC0F2D980029A0E2A8D
S214403CE000F3D5802D4B03EBC203D3E90023CDE987
S214403CF00823259B002BC0F2BA83DDE908565046C0
S214403D002A4633465946FEF7BBF802F079FA804613
S214403D10FDF726FF2A463346FDF788FF0B46024648
S214403D2059465046FDF7CEFD049D08F130032B70F2
S214403D300A9B012B06460F4605F1010568D0002276
S214403D40184BFDF773FF0022002306460F4602F08D
S214403D500FFA002840F08880CDF82C904FF0000AEB
S214403D60DFF840B00C94DDE9088928E0AFF3008026
S214403D7061436F63A787D23FB3C8608B288AC63F2C
S214403D80FB799F501344D33F0000F07FE96C40001E
S214403D900C6D4000186D40000000F83F486D400034
S214403DA0E86C400000002440FDF740FF002200235E
S214403DB006460F4602F0DCF9002840F0C183424632
S214403DC04B4630463946FEF75BF802F019FA044691
S214403DD0FDF7C6FE42464B46FDF728FF02460B4619
S214403DE030463946FDF76EFD04F1300E049E05F868
S214403DF001EBA5EB060E0A9EB645CDE906015246F6
S214403E005B46D1D1A046DDF82C900C9C06460F466A
S214403E1032463B4630463946FDF756FD06460F4687
S214403E2002460B46DDE9080102F0ACF948B93246D5
S214403E303B46DDE9080102F09BF9A8B118F0010FF6
S214403E4012D015F8018C049A6B1E04E09A4200F0DA
S214403E50018413F8018DB8F1390F03F10105F5D04F
S214403E6008F1010883F800804946204601F05CF9D5
S214403E700022029B2A70269A01331360289B002B4F
S214403E8000F09E8304981D601BB0BDE8F08F0B9A2F
S214403E90002A3ED0249A012A40F311830A9B0C9AAA
S214403EA05F1EBA42C0F28F83D71B0A9B002BC0F21C
S214403EB08B84089D0A9B089A1A440892069A012108
S214403EC01A442046069201F0C9F9064624E001232A
S214403ED00E93AFE6089A029BD21A5B420C930023DD
S214403EE008920D93B8E6C7F10103089300230693A2
S214403EF0A7E6029D2846FDF733FE02460B46DDE95F
S214403F00040102F035F900287FF480AE6B1E029360
S214403F107CE60C9F089D0B9E002D0CDD0699002923
S214403F200B4608DDA942089AA8BF2B46D21AED1ABE
S214403F30CB1A089206930C9BD3B10B9B002B00F038
S214403F40B782002F10DD31463A46204601F022FA6D
S214403F504A4601460646204601F08AF949468046CA
S214403F60204601F0E1F8C1460C9BDA1B40F0A182E6
S214403F700121204601F072F90D9B002B80461CDD86
S214403F8001461A46204601F005FA249B012B80463E
S214403F9040F3548200230C93D8F8103008EB830388
S214403FA0186901F00BF9C0F1200010E0C3F12005BC
S214403FB00AFA05F074E60E903CE6249B012B40F38B
S214403FC0878200230C930D9B0120002BE4D1069A98
S214403FD0104410F01F0000F0A180C0F12003042B15
S214403FE040F39E84089BC0F11C000344089313468C
S214403FF0034405440693089B002B05DD49461A46B4
S214404000204601F017FA8146069B002B05DD414607
S2144040101A46204601F00EFA80460E9B002B40F0D2
S21440402086800A9B002B40F366820B9B002B00F099
S2144040309880002D05DD31462A46204601F0FAF9E3
S21440404006460C9B002B40F0378306960A9B049A44
S214404050DDF818B0013BD3180B930AF001030C931C
S2144040601746C24651464846FFF7A4FC3146054629
S214404070484601F031FA5A460A905146204601F029
S21440408047FAC268804605F13003002A40F02B828A
S21440409001464846089301F01FFA414606902046DE
S2144040A001F042F8069A089B32B9249921B90C9A35
S2144040B0002A00F0EF83249A0A990029C0F29F82D2
S2144040C005D1249919B90C99002900F09882002A44
S2144040D000F306830B9A3B7007F10108974245466A
S2144040E000F00C83494600230A22204601F026F8B9
S2144040F05E45814631464FF000034FF00A022046A7
S21440410000F0EB8101F01AF85946064600230A22D1
S214404110204601F013F847468346A3E71C20089B39
S21440412003440893069B03440544069363E74146CD
S214404130484601F0D1F90028BFF673AF029F4946C2
S21440414000230A222046013F029700F0F7FF0B9B10
S2144041508146002B40F0B6830F9B002B40F3BF8375
S2144041600A93DDF810B00A9F5D4602E000F0E6FFD5
S214404170814641464846FFF71DFC00F1300A05F8E7
S21440418001ABA5EB0B03BB424FF00A024FF0000316
S21440419049462046EADB049B0A9A012AACBF9B1894
S2144041A001331D464FF0000B49460122204601F0E0
S2144041B041F94146814601F08FF9002840F33D829F
S2144041C015F8012C04996B1E04E08B4200F0AE817A
S2144041D013F8012D392A03F10105F6D001321A7081
S2144041E04146204600F0A0FF002E3FF43DAEBBF116
S2144041F0000F05D0B34503D05946204600F094FF43
S2144042003146204600F090FF2EE600230B93029B9B
S214404210259A13440F930133012B1F461E460A93DB
S214404220B8BF01270021172F61640AD90122042351
S2144042305B0003F114008742114602F10102F7D2F7
S2144042406164204600F04AFF0E2E049020643FF63C
S21440425041AD002D3FF43EAD02990029CDE910ABAB
S21440426040F30282B84B01F00F020D1103EBC2037C
S214404270E906D3E9006740F1AE81B44B5046594653
S214404280D3E90823FDF7FCFDCDE9120105F00F0543
S2144042904FF0030A8DB1DFF8B482EA0709D53046FD
S2144042A03946D8E90023FDF7C1FC0AF1010A064663
S2144042B00F466D1008F10808EFD13B463246DDE95F
S2144042C01201FDF7DDFD074688460E9B43B10022EE
S2144042D09F4B3846414601F055FF002840F0868205
S2144042E05046FDF73DFC3A464346FDF79FFC994B4A
S2144042F00022FDF7E9FA0A9B0546A1F15076002B0D
S21440430000F03E81029B15930A9B12930B9B002B59
S21440431000F0FA81129A8C4B8F4903EBC20353E9A3
S21440432002230020FDF7ACFD2A463346FDF7CAFAC5
S21440433082468B463846414601F062FF0546FDF709
S2144043400FFC02460B4638464146FDF7BBFA303571
S2144043505FFA85F8049D06460F4685F800800246BB
S2144043600B4650465946013501F02AFF002854D1E5
S21440437032463B4600207649FDF7A4FA02460B46F5
S2144043805046594601F01CFF002840F07082129AB1
S214404390012A00F01181129B049ACDF848901344EC
S2144043A099460DE000206A49FDF78CFA52465B4676
S2144043B001F0E8FE002840F058824D4500F0FA80B3
S2144043C0504659460022654BFDF730FC0022634BB1
S2144043D082468B4630463946FDF728FC0F46064651
S2144043E001F00EFF8046FDF7BBFB02460B4630460B
S2144043F03946FDF767FA08F130085FFA88F8524602
S2144044005B4605F8018B06460F4601F0BBFE32467A
S2144044103B460028C6D0DDF84890159B029323E51E
S21440442000230B93259B002B40F3DC801F461E4643
S2144044300F930A93F6E601230B93F3E7BAF1000FC6
S2144044407FF4A8ADCBF31303002B7FF4BAAD2BF06B
S21440445000473F0D3F05002F00F00D82089B0133BB
S2144044600893069B0133069301230C93ABE50A9B06
S214404470002B3FF742AC40F021820022384BDDE96A
S2144044800801FDF7D3FB52465B4601F08FFEDDF890
S21440449028804646002841D0259B049DDB43029356
S2144044A04146204600F040FE002E3FF4DDACA7E635
S2144044B00C9A4946204600F06DFF814658E5149A0E
S2144044C0002A00F0878103F233430C9F089DF2E4F4
S2144044D0BAF1000F7FF475ADB4E700F02FFE474603
S2144044E006468346BEE501462046069300F01CFE7F
S2144044F00122069BE0E5249B022B7FF796AD0A9BA4
S214404500002BC9D141460522204600F017FE014641
S2144045108046484600F0E0FF0028BDDD029A049938
S2144045203123013202920B704D1CB9E7029A0132D8
S2144045300292049A3123137052E601230B9366E6E7
S214404540DDF82C900C9C8FE4486D4000206D4000B8
S2144045500000F03F00001C400000E03F0000244008
S214404560000014405046FDF7FBFA3A464346FDF736
S2144045705DFB0022C14BFDF7A7F90546A1F1507639
S21440458041460022BE4B3846FDF79CF92A46334644
S21440459082468B4601F014FE8046002840F010818B
S2144045A02A4606F100435046594601F0EBFD18B145
S2144045B0464671E7DDF84890DDE910ABFFF78ABB69
S2144045C00498FFF7BBBA0C9B0D9A0C97FB1A1A443B
S2144045D00D92002769E4DDE910234FF0020ACDE989
S2144045E0122357E60021012361642046259300F0FC
S2144045F075FD259B049020640A930F9329E6002AB4
S214404600D046CDF818B09A4611DD494601222046DC
S21440461000F010FF4146814600F05EFF002840F360
S2144046204681BAF1390F00F0068105F1310AB346EA
S21440463087F800A07D1C069ED2E504D11AF0010F33
S21440464001D0BDE5154615F8013C302B05F1FF328B
S214404650F8D0C5E5049930220A70029A15F8018C04
S21440466001320292FFF7FCBB00F0BB80029B5D422A
S214404670844B05F00F0203EBC203D3E90023DDE9C8
S2144046801001FDF7D3FA2D110746884600F02C811D
S2144046907D4E4FF0020AEB0709D538464146D6E92B
S2144046A00023FDF7C3FA0AF1010A074688466D1053
S2144046B006F10806EFD108E67168204600F00EFDC8
S2144046C0336902339A00054606F10C010C3000F0BF
S2144046D05FFC29460122204600F0ACFE0690B5E479
S2144046E0392BCDF818B0D04600F0A58003F1010A6A
S2144046F0B34687F800A07D1C069E71E55A46D04614
S214404700B3469A4616464FE5129B5E4901EBC301F7
S2144047102A46334651E90201FDF788FACDE91601EB
S2144047203846414601F06CFD0546FDF719FA0B4642
S214404730024641463846FDF7C5F8129B0F46049997
S2144047403035012B0D70064601F1010526D0129B2F
S214404750049ADFF83CB1CDF8489013444FF0000A75
S214404760994652465B4630463946FDF75FFA0F4655
S214404770064601F045FD8046FDF7F2F908F130089F
S21440478002460B4630463946FDF79CF805F8018B45
S2144047904D4506460F46E4D1DDF848903B4B002297
S2144047A0DDE91601FDF790F832463B4601F0EAFC9B
S2144047B0002846D0159B029315F8018CFFF743BBA3
S2144047C04FF000084646A9E6089B0A9A9D1A002321
S2144047D0FFF771BB189B0C9F089DC3F13603FFF78C
S2144047E06ABBDDE910784FF0020A6EE50A9B002BA3
S2144047F03FF4B8AE0F9B002B7FF7DEAE0022244B73
S21440480038464146FDF712FA074688460AF1010047
S214404810FDF7A6F93A464346FDF708FA0022174B3D
S214404820FDF752F8029A0F9B1293013A0546A1F102
S214404830507615926AE53922B3463A70069E7D1C3C
S214404840C0E4DDE9162300201049FDF73BF8324668
S2144048503B4601F0B5FC08B9AEE6154615F8013CF6
S214404860302B05F1FF32F8D0D7E5DDF84890159BA0
S2144048700293FFF7E8BA0C97FFF7A5BB00001C4071
S21440488000001440486D4000206D40000000E03FAE
S21440489000002440392BCDF818B0D046DDF828B0BB
S2144048A09A46C8D0BBF1000F3FF7BFAEBFE67FF4D5
S2144048B0BEAE1AF0010F3FF4BAAEB2E64FF00008B3
S2144048C04646E9E5314600230A22204600F036FCFB
S2144048D00F9B002B06460ADD0A93FFF7AABB249BD4
S2144048E0022B23DC0F9B3BE44FF0020AEDE4249BB3
S2144048F0022B1BDC0F9BEFE700256564294620460C
S21440490000F0ECFB4FF0FF330A930F930123049023
S214404910259520640B93FFF7DDB90125FFF7A5B970
S2144049203FF469ABC0F13C00FFF7F9BB0F9B0A931D
S214404930E5E500BF38B50A4C0A4D641BA4100AD002
S21440494004F18043013B05EB8305013C55F80439EF
S2144049509847002CF9D1BDE8384002F0F3BA00BFC2
S214404960546F4000506F4000044A054B1268506B2D
S214404970002808BF1846F030704700BF2800402087
S2144049806C084020704700BF704700BF2DE9F04FCD
S21440499001F10B06162E83B0054640F29E8036F097
S2144049A0070600F1BD80B14200F2BA8000F08AFBF3
S2144049B0B6F5FC7FC0F09382730A00F0B880042BF3
S2144049C000F27981B30903F1390003F1380EC300D0
S2144049D0BF4F3B44A3F108015C68A14206D10CE0FE
S2144049E0002A80F2AA80E468A14206D0636823F0D9
S2144049F003039A1B0F2AF3DD70463C69DFF8E4E2B6
S214404A00744500F0AB81636823F003039A1B0F2ABA
S214404A1000F39081002AC7F814E0C7F810E080F24F
S214404A209D80B3F5007F80F06181DB0803F1010CC7
S214404A3099107A6857F83C80C4F8088001238B4068
S214404A4007EBCC0113430839E1607B6047F83C40F4
S214404A50C8F80C408210012494409C4200F28B809F
S214404A601C4206D120F0030064001C4200F1040002
S214404A70FAD007EBC009CC468046DCF80C309C45A3
S214404A8007D16DE1002A80F27B81DB689C4500F00F
S214404A906781596821F003018A1B0F2AF2DDD3F89B
S214404AA00CC0D3F8088000939C19284646F00106AF
S214404AB042F001055E60C8F80CC0CCF808807C6106
S214404AC03C61C4F80CE0C4F808E065605A5000F059
S214404AD0FFFA009B03F108041EE0102920D800F0DE
S214404AE0F1FA102618230220794F3B44A3F108021E
S214404AF05C68944200F03D816368E168A66823F0F4
S214404B000303234428465A68F16042F001028E604F
S214404B105A6000F0DDFA0834204603B0BDE8F08F56
S214404B2000240C2320462B6003B0BDE8F08F4020C5
S214404B304FF400734FF03F0E4AE72344E1685A684B
S214404B40A66842F00102F16028468E605A6000F086
S214404B50BFFA0834204603B0BDE8F08F2344284609
S214404B605A6842F001025A6000F0B2FA0834204611
S214404B7003B0BDE8F08FBC68636823F00308B04517
S214404B8004D3A8EB06030F2B00F38580DFF858917B
S214404B90504BD9F800201B680132334404EB080A16
S214404BA000F0558103F580530F3323F47F6B2BF0D1
S214404BB00F0B5946284600F08BFD411C024600F07C
S214404BC0FC80824500F2F780434B196859441960CF
S214404BD000F04D81D9F8000001301BBFA2EB0A0A55
S214404BE05144C9F80020196012F0070100F0158101
S214404BF0C1F10800C1F580510244083102EB0B09AF
S214404C00C9F30B09A1EB09094946284601930092CE
S214404C1000F05EFD431C9DE80C0000F04381801AC6
S214404C20484440F001001968BA604944BC425060AC
S214404C30196017D0B8F10F0F40F2FB806068A8F1FA
S214404C400C0222F0070204EB020E00F001004FF0C7
S214404C50050C10430F2A6060CEF804C0CEF808C09A
S214404C6000F217811D4BBC681A68914288BF1960D4
S214404C701B4B1A689142626888BF196022F0030293
S214404C809642A2EB060301D80F2B04DC284600F020
S214404C901FFA002440E7A21943F0010346F001063C
S214404CA066602846BA60536000F012FA0834204620
S214404CB003B0BDE8F08F142B71D9542B00F2A380BB
S214404CC0330B03F16F0003F16E0EC30080E600BFA6
S214404CD05C044020B80C4020880C4020B00C40209B
S214404CE0B40C402064044020640840205A0A042A39
S214404CF05BD9142A00F2AE8002F15C01C9005B3237
S214404D0007EB010C7958ACF1080C8C4500F0888014
S214404D104A6822F00302934273D289688C45F7D1E1
S214404D20DCF80C207B68E260C4F808C09460CCF8DD
S214404D300C408FE6A11946F0010C42F00106C4F87B
S214404D4004C0284679613961C1F80CE0C1F808E032
S214404D504E60E25000F0BCF90834DDE67B6879E648
S214404D6008F1010818F0030F0CF1080C7FF485AE2B
S214404D702DE0DC68A34208BF02303FF43EAEBBE6FF
S214404D8019441C464A68DB6854F8086F42F0010232
S214404D904A602846F3609E6000F09AF9BCE603F14C
S214404DA05C0003F15B0EC30012E69A0902F139017A
S214404DB0C9003832A4E7BC4254D0BC68626822F0CE
S214404DC003025DE759F80839994540F0868010F0AF
S214404DD0030F00F1FF30F5D17B6823EA04037B60C4
S214404DE064009C423FF6C7AE002C3FF4C4AE1C4263
S214404DF040467FF43EAE64001C4200F10400FAD008
S214404E0037E68C468CE7B3F5AA7F15D8F30B03F14B
S214404E10780003F1770EC300DAE54FF48051EDE6F3
S214404E207B689210012101FA02F213437B606246CE
S214404E3079E70123536029E740F25452934222D83F
S214404E40B30C03F17D0003F17C0EC300C0E503F113
S214404E50100BAEE6542A29D81A0B02F16F01C9008E
S214404E606E324DE7204B196859441960B2E6CAF3D2
S214404E700B0000287FF4AEAE08EB0B03BA6843F095
S214404E8001035360EEE67F204FF47E734FF07E0EB4
S214404E909EE504F108012846009300F0FFFD009BC4
S214404EA01968DFE601204FF00009BCE6B2F5AA7F9C
S214404EB005D8DA0B02F17801C900773220E740F2D4
S214404EC054518A4205D89A0C02F17D01C9007C32C1
S214404ED016E74FF47E717E2212E77B6880E7F00883
S214404EE006F1080300E600BF880C402000000000E2
S214404EF001F0FF01102A2BDB10F0070F08D010F846
S214404F00013B013A8B422DD010F0070F42B3F6D149
S214404F10F0B441EA012141EA014122F007047FF062
S214404F2000070023F0E80256083C85EA010586EAB9
S214404F30010685FA47F5A3FA87F586FA47F6A5FAF5
S214404F4087F68EB9EED1F0BC01F0FF0102F0070201
S214404F5032B110F8013B013A83EA010313B1F8D1AC
S214404F600020704701387047002D06BF354603388D
S214404F70073815F0010F07D1013015F4807F02BFC6
S214404F80013015F4C03F0130F0BC0138704700BF17
S214404F90844641EA000313F003036DD1403A41D3FF
S214404FA051F8043B40F8043B51F8043B40F8043BBE
S214404FB051F8043B40F8043B51F8043B40F8043BAE
S214404FC051F8043B40F8043B51F8043B40F8043B9E
S214404FD051F8043B40F8043B51F8043B40F8043B8E
S214404FE051F8043B40F8043B51F8043B40F8043B7E
S214404FF051F8043B40F8043B51F8043B40F8043B6E
S21440500051F8043B40F8043B51F8043B40F8043B5D
S21440501051F8043B40F8043B51F8043B40F8043B4D
S214405020403ABDD2303211D351F8043B40F8043BED
S21440503051F8043B40F8043B51F8043B40F8043B2D
S21440504051F8043B40F8043B103AEDD20C3205D3FD
S21440505051F8043B40F8043B043AF9D2043208D0F5
S214405060D2071CBF11F8013B00F8013B01D30B8867
S21440507003806046704700BF082A13D38B078DD045
S21440508010F003038AD0C3F10403D21ADB071CBF17
S21440509011F8013B00F8013B80D331F8023B20F881
S2144050A0023B7BE7043AD9D3013A11F8013B00F8BA
S2144050B0013BF9D20B7803704B7843708B78837042
S2144050C0604670470148FFF75DBC00BFCC0C4020EF
S2144050D00148FFF759BC00BFCC0C4020C36C70B5EC
S2144050E005460C464BB153F8240080B1026843F89D
S2144050F0242000230361C36070BD2122042100F0F8
S2144051004DFCE86403460028EDD1002070BD012127
S21440511001FA04F6721D2846920000F03FFC002873
S214405120F3D044608660E4E731B1C36C4A6853F814
S2144051302200086043F82210704700BFF0B50C69A3
S21440514083B00D46064601F1140E0027DEF8000037
S21440515081B202FB0133010C180C02FB01019BB229
S214405160013703EB0143BC424EF8043B4FEA114380
S214405170ECDC3BB1AA68944207DA05EB84020134C2
S21440518053612C61284603B0F0BD69680193013134
S2144051903046FFF7A3FF2A69023205F10C010746A5
S2144051A092000C30FFF7F4FEF26C6968019B52F8EF
S2144051B02100286042F821503D46DEE7020C1204EA
S2144051C00346B2B90304102013F07F4F04BF1B02FE
S2144051D0083013F0704F04BF1B01043013F0404FEB
S2144051E004BF9B000230002B02DB5B0003D4202070
S2144051F070470020E8E70130704700BF036813F0AF
S2144052000702014607D0DA0721D4980721D49B0825
S2144052100B600220704798B298B1104613F0FF0F0B
S21440522004BF1B0A08301A0704BF1B0904309A073C
S21440523004BF9B080230DA0707D45B0804D120205D
S21440524070471B0C1020E9E701300B6070470020C8
S21440525070475B080B600120704700BF10B50C46D6
S2144052600121FFF73BFF01224461026110BD00BFF0
S2144052702DE9F04F0C691569AC4283B08B46164653
S21440528004DA2246B3462C460E461546DBF808306E
S214405290DBF8041004EB05089845C8BF0131FFF75A
S2144052A01DFF00F1140909EB880AD145009005D28C
S2144052B04B46002143F8041B9A45FBD806F1140CD4
S2144052C00CEB85030BF1140B9C450BEB840E4CD278
S2144052D0CDF804A09A46DCF80050AFB2EFB10021FA
S2144052E04D465E460C4656F8042B286893B281B26B
S2144052F007FB0313120C010C234407FB021101EBBE
S21440530013419BB243EA0143B64545F8043B4FEA96
S2144053101144E8D82C60DCF800502D0C1DD0D9F88C
S214405320003048461C46594600220E88240C05FB91
S214405330064422449BB243EA024340F8043B51F8F9
S214405340043B04681B0CA6B205FB036303EB124345
S2144053508E454FEA1342E8D803600CF1040CE24550
S21440536009F10409B7D8DDF804A0B8F1000F0BDD49
S2144053705AF8043CAAF1040A1BB105E05AF8043D69
S21440538013B9B8F10108F9D10098C0F8108003B0FD
S214405390BDE8F08F12F003032DE9F04114460746AE
S2144053A02ED10D46A4101CD0BE6C96B3E3074FF02A
S2144053B0000806D4641014D03068A8B10646E30747
S2144053C0F8D5324629463846FFF752FFB5B16A68E7
S2144053D0FB6C641053F82210296043F822500546AF
S2144053E0EAD12846BDE8F081324631463846FFF7D6
S2144053F03FFF3060C0F800800646E0E70546D9E744
S2144054005A1E0B4D002355F82220FFF797FE0546FF
S214405410C8E701213846FFF761FE40F271210122BC
S2144054200023416102610646B8640360BEE700BFE0
S214405430106E40002DE9F84391460A698B684FEAA2
S214405440691404EB020808F101059D420E46074622
S214405450496804DD5B009D4201F10101FADC3846F3
S214405460FFF73CFE002C00F1140306DD03EB84023C
S214405470002143F8041B9A42FBD1346906F114011B
S21440548019F01F0901EB840E1DD0C9F1200C002233
S2144054900C6804FA09F4144343F8044B51F8042BFF
S2144054A08E4522FA0CF2F3D81A600AB108F10205CA
S2144054B0FB6C7268013D53F822100561316043F879
S2144054C02260BDE8F883043B51F8042B43F8042FD0
S2144054D08E45F9D8ECE700BF30B40B690546006945
S2144054E0C01A0FD19B001435143119442B4401E0E7
S2144054F09D4207D253F8044D51F8042D9442F7D0FC
S21440550002D3012030BC70474FF0FF30FAE700BFAF
S2144055102DE9F0410F690E4611697F1A002F90461B
S21440552017D1890006F1140502F1140E6B18714468
S21440553001E09D425CD253F8042D51F8044DA2423E
S214405540F7D05ED233462C464646754698460127E7
S21440555005E058DB06F1140508F1140400277168CD
S214405560FFF7BCFDD8F810303669C76004EB830CF3
S214405570A64605EB860700F1140400235EF8041BDC
S21440558055F8048B8AB213FA88F3090C9A1AC1EBC1
S214405590184303EB224392B242EA0342F44544F8EE
S2144055A0042B4FEA2343E9D8AF4217D9A446AE4668
S2144055B05EF8042B13FA82F3191401EB12419BB2E6
S2144055C043EA014277454CF8042B4FEA2143EFD893
S2144055D0ED432F4427F0030704373C44043C22B9EC
S2144055E054F8043D013E002BFAD00661BDE8F08138
S2144055F00021FFF773FD0122002302614361BDE8ED
S214405600F0817446ABE7334606F1140402F1140504
S214405610164601279846A2E72DE9F04182B00121BF
S2144056201C46C3F30A571546089EFFF757FDC4F3BA
S214405630130480460FB144F4801401941DB302A8AD
S21440564040F8085DFFF7DAFD002834D19DE80C00ED
S214405650C8F81420002B0CBF01210221C8F81830CE
S214405660C8F81010DFB908EB8103A0F23240306072
S2144056701869FFF7A3FD099BC0EB41101860404630
S21440568002B0BDE8F08101A8FFF7B8FD019BC8F85D
S214405690143001212030C8F81010002FE3D0099BA9
S2144056A0A7F233470744C0F13500376018604046DC
S2144056B002B0BDE8F0819DE80A00C0F1200203FA7E
S2144056C002F20A43C3400193C8F81420C2E700BF61
S2144056D038B5074C0023054608462360FBF78EFE88
S2144056E0431C00D038BD2368002BFBD02B6038BD50
S2144056F0E00C402000000000000000000000000019
S21440570090F800F06DE9024520F007016FF0000CBC
S21440571010F0070491F820F040F049804FF0000464
S2144057206FF00700D1E9002391F840F000F108003F
S21440573082FA4CF2A4FA8CF283FA4CF3A2FA8CF377
S2144057404BBBD1E9022382FA4CF200F10800A4FADE
S2144057508CF283FA4CF3A2FA8CF3E3B9D1E9042332
S21440576082FA4CF200F10800A4FA8CF283FA4CF369
S214405770A2FA8CF37BB9D1E9062301F1200182FA23
S2144057804CF200F10800A4FA8CF283FA4CF3A2FA29
S2144057908CF3002BC6D0002A04BF04301A4612BA37
S2144057A0B2FA82F2FDE8024500EBD2007047D1E93A
S2144057B0002304F00305C4F100004FEAC50514F0C9
S2144057C0040F91F840F00CFA05F562EA05021CBF9A
S2144057D063EA050362464FF00004A9E72DE9F04F5F
S2144057E0936883B09046002B70D082460C4617686C
S2144057F08D68086842E0A38913F4906F2ED06569DF
S214405800216905EB4505A0EB010B05EBD5750BF1C2
S21440581001006D103044A8422A4684BF05462A46F9
S2144058205B0538D511465046FFF7B0F800283CD007
S2144058305A4621690190FFF7ABFBA289019B22F4EF
S214405840906242F08002A281A5EB0B0203EB0B00B4
S214405850656123612060A2603546B3465A46494694
S21440586000F018FAD8F80830A2682068551B58444B
S2144058709E1BA5602060C8F808603EB37E683B4625
S2144058800837002EFAD0AE42D3F80090AB46B2D2DC
S2144058903546B346E2E7504600F060FA0346002835
S2144058A0D2D12169504600F0F9F80C23CAF80030EE
S2144058B0A389002243F040034FF0FF30A381C8F88D
S2144058C00820C8F8042003B0BDE8F08F0020C8F8D0
